{
  "abi": [
    {
      "inputs": [],
      "name": "CALLER",
      "outputs": [
        {
          "internalType": "contract Multicall3",
          "name": "",
          "type": "address"
        }
      ],
      "stateMutability": "view",
      "type": "function"
    },
    {
      "inputs": [
        {
          "internalType": "address",
          "name": "token",
          "type": "address"
        },
        {
          "internalType": "address[]",
          "name": "targets",
          "type": "address[]"
        },
        {
          "internalType": "uint256[]",
          "name": "amounts",
          "type": "uint256[]"
        }
      ],
      "name": "disperse",
      "outputs": [
        {
          "components": [
            {
              "internalType": "bool",
              "name": "success",
              "type": "bool"
            },
            {
              "internalType": "bytes",
              "name": "returnData",
              "type": "bytes"
            }
          ],
          "internalType": "struct Multicall3.Result[]",
          "name": "",
          "type": "tuple[]"
        }
      ],
      "stateMutability": "payable",
      "type": "function"
    }
  ],
  "bytecode": {
    "object": "0x608060405234801561001057600080fd5b5061079f806100206000396000f3fe6080604052600436106100295760003560e01c8063863dabb41461002e578063c87b1ae314610073575b600080fd5b34801561003a57600080fd5b5061005673ca11bde05977b3631167028862be2a173976ca1181565b6040516001600160a01b0390911681526020015b60405180910390f35b610086610081366004610365565b610093565b60405161006a9190610442565b6060838281146100e95760405162461bcd60e51b815260206004820152601760248201527f54617267657420616d6f756e7473206d69736d61746368000000000000000000604482015260640160405180910390fd5b60008167ffffffffffffffff811115610104576101046104b8565b60405190808252806020026020018201604052801561015157816020015b604080516060808201835260008083526020830152918101919091528152602001906001900390816101225790505b50905060005b8281101561027257604051806060016040528089898481811061017c5761017c6104ce565b905060200201602081019061019191906104e4565b6001600160a01b03168152600160208201526040018a338b8b868181106101ba576101ba6104ce565b90506020020160208101906101cf91906104e4565b8a8a878181106101e1576101e16104ce565b6040516001600160a01b039687166024820152948616604486015292909416606484015260209091020135608482015260a401905060408051601f198184030181529190526020810180516001600160e01b0316634b94dd8f60e11b17905290528251839083908110610256576102566104ce565b60200260200101819052508061026b90610506565b9050610157565b506040516382ad56cb60e01b815273ca11bde05977b3631167028862be2a173976ca11906382ad56cb906102aa90849060040161052d565b6000604051808303816000875af11580156102c9573d6000803e3d6000fd5b505050506040513d6000823e601f3d908101601f191682016040526102f19190810190610603565b98975050505050505050565b80356001600160a01b038116811461031457600080fd5b919050565b60008083601f84011261032b57600080fd5b50813567ffffffffffffffff81111561034357600080fd5b6020830191508360208260051b850101111561035e57600080fd5b9250929050565b60008060008060006060868803121561037d57600080fd5b610386866102fd565b9450602086013567ffffffffffffffff808211156103a357600080fd5b6103af89838a01610319565b909650945060408801359150808211156103c857600080fd5b506103d588828901610319565b969995985093965092949392505050565b60005b838110156104015781810151838201526020016103e9565b83811115610410576000848401525b50505050565b6000815180845261042e8160208601602086016103e6565b601f01601f19169290920160200192915050565b60006020808301818452808551808352604092508286019150828160051b87010184880160005b838110156104aa57888303603f19018552815180511515845287015187840187905261049787850182610416565b9588019593505090860190600101610469565b509098975050505050505050565b634e487b7160e01b600052604160045260246000fd5b634e487b7160e01b600052603260045260246000fd5b6000602082840312156104f657600080fd5b6104ff826102fd565b9392505050565b60006001820161052657634e487b7160e01b600052601160045260246000fd5b5060010190565b60006020808301818452808551808352604092508286019150828160051b87010184880160005b838110156104aa57888303603f19018552815180516001600160a01b0316845287810151151588850152860151606087850181905261059581860183610416565b968901969450505090860190600101610554565b6040805190810167ffffffffffffffff811182821017156105cc576105cc6104b8565b60405290565b604051601f8201601f1916810167ffffffffffffffff811182821017156105fb576105fb6104b8565b604052919050565b6000602080838503121561061657600080fd5b825167ffffffffffffffff8082111561062e57600080fd5b818501915085601f83011261064257600080fd5b815181811115610654576106546104b8565b8060051b6106638582016105d2565b918252838101850191858101908984111561067d57600080fd5b86860192505b8383101561075c5782518581111561069b5760008081fd5b86016040601f19828d0381018213156106b45760008081fd5b6106bc6105a9565b8a84015180151581146106cf5760008081fd5b815283830151898111156106e35760008081fd5b8085019450508d603f8501126106f95760008081fd5b8a8401518981111561070d5761070d6104b8565b61071d8c84601f840116016105d2565b92508083528e848287010111156107345760008081fd5b610743818d85018688016103e6565b50808b0191909152845250509186019190860190610683565b999850505050505050505056fea26469706673582212203c87778b569077fc699bd146de5554d13499946dab42afb04067688e1f4b394c64736f6c634300080d0033",
    "linkReferences": {}
  },
  "methodIdentifiers": {
    "CALLER()": "863dabb4",
    "disperse(address,address[],uint256[])": "c87b1ae3"
  },
  "id": 9
}