{
  "abi": [
    {
      "inputs": [],
      "name": "CALLER",
      "outputs": [
        {
          "internalType": "contract Multicall3",
          "name": "",
          "type": "address"
        }
      ],
      "stateMutability": "view",
      "type": "function"
    },
    {
      "inputs": [
        {
          "internalType": "address",
          "name": "token",
          "type": "address"
        },
        {
          "internalType": "uint256",
          "name": "amount",
          "type": "uint256"
        }
      ],
      "name": "approve",
      "outputs": [],
      "stateMutability": "nonpayable",
      "type": "function"
    },
    {
      "inputs": [
        {
          "internalType": "address",
          "name": "token",
          "type": "address"
        },
        {
          "internalType": "address[]",
          "name": "targets",
          "type": "address[]"
        },
        {
          "internalType": "uint256[]",
          "name": "amounts",
          "type": "uint256[]"
        }
      ],
      "name": "disperse",
      "outputs": [
        {
          "components": [
            {
              "internalType": "bool",
              "name": "success",
              "type": "bool"
            },
            {
              "internalType": "bytes",
              "name": "returnData",
              "type": "bytes"
            }
          ],
          "internalType": "struct Multicall3.Result[]",
          "name": "",
          "type": "tuple[]"
        }
      ],
      "stateMutability": "payable",
      "type": "function"
    },
    {
      "inputs": [
        {
          "internalType": "address[]",
          "name": "targets",
          "type": "address[]"
        },
        {
          "internalType": "uint256[]",
          "name": "amounts",
          "type": "uint256[]"
        }
      ],
      "name": "disperseEther",
      "outputs": [
        {
          "components": [
            {
              "internalType": "bool",
              "name": "success",
              "type": "bool"
            },
            {
              "internalType": "bytes",
              "name": "returnData",
              "type": "bytes"
            }
          ],
          "internalType": "struct Multicall3.Result[]",
          "name": "result",
          "type": "tuple[]"
        }
      ],
      "stateMutability": "payable",
      "type": "function"
    }
  ],
  "bytecode": {
    "object": "0x608060405234801561001057600080fd5b50610b6d806100206000396000f3fe60806040526004361061003f5760003560e01c8063095ea7b314610044578063863dabb414610066578063c87b1ae3146100ab578063e63d38ed146100cb575b600080fd5b34801561005057600080fd5b5061006461005f36600461062e565b6100de565b005b34801561007257600080fd5b5061008e73ca11bde05977b3631167028862be2a173976ca1181565b6040516001600160a01b0390911681526020015b60405180910390f35b6100be6100b93660046106a4565b610154565b6040516100a29190610781565b6100be6100d93660046107f7565b610392565b60405163095ea7b360e01b8152306004820152602481018290526001600160a01b0383169063095ea7b3906044016020604051808303816000875af115801561012b573d6000803e3d6000fd5b505050506040513d601f19601f8201168201806040525081019061014f9190610873565b505050565b6060838281146101a55760405162461bcd60e51b81526020600482015260176024820152760a8c2e4cecae840c2dadeeadce8e640dad2e6dac2e8c6d604b1b60448201526064015b60405180910390fd5b60008167ffffffffffffffff8111156101c0576101c0610895565b60405190808252806020026020018201604052801561020d57816020015b604080516060808201835260008083526020830152918101919091528152602001906001900390816101de5790505b50905060005b8281101561030757604080516060810182526001600160a01b038b168152600060208201529081018a338b8b8681811061024f5761024f6108ab565b905060200201602081019061026491906108c1565b8a8a87818110610276576102766108ab565b6040516001600160a01b039687166024820152948616604486015292909416606484015260209091020135608482015260a401905060408051601f198184030181529190526020810180516001600160e01b0316634b94dd8f60e11b179052905282518390839081106102eb576102eb6108ab565b602002602001018190525080610300906108dc565b9050610213565b506040516382ad56cb60e01b815273ca11bde05977b3631167028862be2a173976ca11906382ad56cb9061033f908490600401610903565b6000604051808303816000875af115801561035e573d6000803e3d6000fd5b505050506040513d6000823e601f3d908101601f1916820160405261038691908101906109d9565b98975050505050505050565b6060838281146103de5760405162461bcd60e51b81526020600482015260176024820152760a8c2e4cecae840c2dadeeadce8e640dad2e6dac2e8c6d604b1b604482015260640161019c565b60008167ffffffffffffffff8111156103f9576103f9610895565b60405190808252806020026020018201604052801561044657816020015b604080516060808201835260008083526020830152918101919091528152602001906001900390816104175790505b50905060005b8281101561052457604080516060810182523381526000602082015290810189898481811061047d5761047d6108ab565b905060200201602081019061049291906108c1565b8888858181106104a4576104a46108ab565b6040516001600160a01b039094166024850152602002919091013560448301525060640160408051601f198184030181529190526020810180516001600160e01b031663a9059cbb60e01b17905290528251839083908110610508576105086108ab565b60200260200101819052508061051d906108dc565b905061044c565b506040516382ad56cb60e01b815273ca11bde05977b3631167028862be2a173976ca11906382ad56cb9061055c908490600401610903565b6000604051808303816000875af115801561057b573d6000803e3d6000fd5b505050506040513d6000823e601f3d908101601f191682016040526105a391908101906109d9565b92504780156105b6576105b633826105c1565b505050949350505050565b600080600080600085875af190508061014f5760405162461bcd60e51b815260206004820152601360248201527211551217d514905394d1915497d19052531151606a1b604482015260640161019c565b80356001600160a01b038116811461062957600080fd5b919050565b6000806040838503121561064157600080fd5b61064a83610612565b946020939093013593505050565b60008083601f84011261066a57600080fd5b50813567ffffffffffffffff81111561068257600080fd5b6020830191508360208260051b850101111561069d57600080fd5b9250929050565b6000806000806000606086880312156106bc57600080fd5b6106c586610612565b9450602086013567ffffffffffffffff808211156106e257600080fd5b6106ee89838a01610658565b9096509450604088013591508082111561070757600080fd5b5061071488828901610658565b969995985093965092949392505050565b60005b83811015610740578181015183820152602001610728565b8381111561074f576000848401525b50505050565b6000815180845261076d816020860160208601610725565b601f01601f19169290920160200192915050565b60006020808301818452808551808352604092508286019150828160051b87010184880160005b838110156107e957888303603f1901855281518051151584528701518784018790526107d687850182610755565b95880195935050908601906001016107a8565b509098975050505050505050565b6000806000806040858703121561080d57600080fd5b843567ffffffffffffffff8082111561082557600080fd5b61083188838901610658565b9096509450602087013591508082111561084a57600080fd5b5061085787828801610658565b95989497509550505050565b8051801515811461062957600080fd5b60006020828403121561088557600080fd5b61088e82610863565b9392505050565b634e487b7160e01b600052604160045260246000fd5b634e487b7160e01b600052603260045260246000fd5b6000602082840312156108d357600080fd5b61088e82610612565b6000600182016108fc57634e487b7160e01b600052601160045260246000fd5b5060010190565b60006020808301818452808551808352604092508286019150828160051b87010184880160005b838110156107e957888303603f19018552815180516001600160a01b0316845287810151151588850152860151606087850181905261096b81860183610755565b96890196945050509086019060010161092a565b6040805190810167ffffffffffffffff811182821017156109a2576109a2610895565b60405290565b604051601f8201601f1916810167ffffffffffffffff811182821017156109d1576109d1610895565b604052919050565b600060208083850312156109ec57600080fd5b825167ffffffffffffffff80821115610a0457600080fd5b818501915085601f830112610a1857600080fd5b815181811115610a2a57610a2a610895565b8060051b610a398582016109a8565b9182528381018501918581019089841115610a5357600080fd5b86860192505b83831015610b2a57825185811115610a715760008081fd5b86016040601f19828d038101821315610a8a5760008081fd5b610a9261097f565b610a9d8b8501610863565b81528284015189811115610ab15760008081fd5b8085019450508d603f850112610ac75760008081fd5b8a84015189811115610adb57610adb610895565b610aeb8c84601f840116016109a8565b92508083528e84828701011115610b025760008081fd5b610b11818d8501868801610725565b50808b0191909152845250509186019190860190610a59565b999850505050505050505056fea2646970667358221220daa38e7fea12761185dd8dc166bf62c659665c60cb518c18a0581e46f77193a264736f6c634300080d0033",
    "linkReferences": {}
  },
  "methodIdentifiers": {
    "CALLER()": "863dabb4",
    "approve(address,uint256)": "095ea7b3",
    "disperse(address,address[],uint256[])": "c87b1ae3",
    "disperseEther(address[],uint256[])": "e63d38ed"
  },
  "id": 9
}