{
  "abi": [
    {
      "inputs": [
        {
          "components": [
            {
              "internalType": "address",
              "name": "target",
              "type": "address"
            },
            {
              "internalType": "bool",
              "name": "allowFailure",
              "type": "bool"
            },
            {
              "internalType": "bytes",
              "name": "callData",
              "type": "bytes"
            }
          ],
          "internalType": "struct IMulticall3.Call3[]",
          "name": "calls",
          "type": "tuple[]"
        }
      ],
      "name": "aggregate3",
      "outputs": [
        {
          "components": [
            {
              "internalType": "bool",
              "name": "success",
              "type": "bool"
            },
            {
              "internalType": "bytes",
              "name": "returnData",
              "type": "bytes"
            }
          ],
          "internalType": "struct IMulticall3.Result[]",
          "name": "returnData",
          "type": "tuple[]"
        }
      ],
      "stateMutability": "payable",
      "type": "function"
    },
    {
      "inputs": [
        {
          "components": [
            {
              "internalType": "address",
              "name": "target",
              "type": "address"
            },
            {
              "internalType": "bool",
              "name": "allowFailure",
              "type": "bool"
            },
            {
              "internalType": "uint256",
              "name": "value",
              "type": "uint256"
            },
            {
              "internalType": "bytes",
              "name": "callData",
              "type": "bytes"
            }
          ],
          "internalType": "struct IMulticall3.Call3Value[]",
          "name": "calls",
          "type": "tuple[]"
        }
      ],
      "name": "aggregate3Value",
      "outputs": [
        {
          "components": [
            {
              "internalType": "bool",
              "name": "success",
              "type": "bool"
            },
            {
              "internalType": "bytes",
              "name": "returnData",
              "type": "bytes"
            }
          ],
          "internalType": "struct IMulticall3.Result[]",
          "name": "returnData",
          "type": "tuple[]"
        }
      ],
      "stateMutability": "payable",
      "type": "function"
    },
    {
      "inputs": [
        {
          "internalType": "address",
          "name": "token",
          "type": "address"
        },
        {
          "internalType": "address[]",
          "name": "targets",
          "type": "address[]"
        },
        {
          "internalType": "uint256[]",
          "name": "amounts",
          "type": "uint256[]"
        }
      ],
      "name": "disperse",
      "outputs": [
        {
          "components": [
            {
              "internalType": "bool",
              "name": "success",
              "type": "bool"
            },
            {
              "internalType": "bytes",
              "name": "returnData",
              "type": "bytes"
            }
          ],
          "internalType": "struct IMulticall3.Result[]",
          "name": "",
          "type": "tuple[]"
        }
      ],
      "stateMutability": "nonpayable",
      "type": "function"
    },
    {
      "inputs": [
        {
          "internalType": "address[]",
          "name": "targets",
          "type": "address[]"
        },
        {
          "internalType": "uint256[]",
          "name": "amounts",
          "type": "uint256[]"
        }
      ],
      "name": "disperseEther",
      "outputs": [
        {
          "components": [
            {
              "internalType": "bool",
              "name": "success",
              "type": "bool"
            },
            {
              "internalType": "bytes",
              "name": "returnData",
              "type": "bytes"
            }
          ],
          "internalType": "struct IMulticall3.Result[]",
          "name": "result",
          "type": "tuple[]"
        }
      ],
      "stateMutability": "payable",
      "type": "function"
    },
    {
      "inputs": [
        {
          "internalType": "address[]",
          "name": "targets",
          "type": "address[]"
        },
        {
          "internalType": "uint256[]",
          "name": "amounts",
          "type": "uint256[]"
        }
      ],
      "name": "disperseEtherLoop",
      "outputs": [
        {
          "internalType": "bool",
          "name": "",
          "type": "bool"
        }
      ],
      "stateMutability": "payable",
      "type": "function"
    },
    {
      "inputs": [
        {
          "internalType": "address",
          "name": "token",
          "type": "address"
        },
        {
          "internalType": "address[]",
          "name": "targets",
          "type": "address[]"
        },
        {
          "internalType": "uint256[]",
          "name": "amounts",
          "type": "uint256[]"
        }
      ],
      "name": "disperseLoop",
      "outputs": [
        {
          "internalType": "bool",
          "name": "",
          "type": "bool"
        }
      ],
      "stateMutability": "nonpayable",
      "type": "function"
    },
    {
      "stateMutability": "payable",
      "type": "receive"
    }
  ],
  "bytecode": {
    "object": "0x608060405234801561001057600080fd5b50611447806100206000396000f3fe6080604052600436106100595760003560e01c8063174dea71146100655780632f9498cf1461008e57806382ad56cb146100b15780638d44456e146100c4578063c87b1ae3146100e4578063e63d38ed1461010457600080fd5b3661006057005b600080fd5b610078610073366004610dbe565b610117565b6040516100859190610e5c565b60405180910390f35b6100a161009c366004610ed2565b610305565b6040519015158152602001610085565b6100786100bf366004610dbe565b610434565b3480156100d057600080fd5b506100a16100df366004610f5a565b6105b6565b3480156100f057600080fd5b506100786100ff366004610f5a565b61073e565b610078610112366004610ed2565b610a13565b60606000828067ffffffffffffffff81111561013557610135610fdb565b60405190808252806020026020018201604052801561017b57816020015b6040805180820190915260008152606060208201528152602001906001900390816101535790505b5092503660005b828110156102a757600085828151811061019e5761019e610ff1565b602002602001015190508787838181106101ba576101ba610ff1565b90506020028101906101cc9190611007565b6040810135958601959093506101e56020850185611027565b6001600160a01b0316816101fc6060870187611049565b60405161020a929190611090565b60006040518083038185875af1925050503d8060008114610247576040519150601f19603f3d011682016040523d82523d6000602084013e61024c565b606091505b50602080850191909152901515808452908501351761029d5762461bcd60e51b6000526020600452601760245276135d5b1d1a58d85b1b0cce8818d85b1b0819985a5b1959604a1b60445260846000fd5b5050600101610182565b508234146102fc5760405162461bcd60e51b815260206004820152601a60248201527f4d756c746963616c6c333a2076616c7565206d69736d6174636800000000000060448201526064015b60405180910390fd5b50505092915050565b6000838281146103275760405162461bcd60e51b81526004016102f3906110a0565b6000805b828110156103695785858281811061034557610345610ff1565b905060200201358261035791906110ed565b915061036281611105565b905061032b565b50803410156103b15760405162461bcd60e51b8152602060048201526014602482015273496e73756666696369656e742062616c616e636560601b60448201526064016102f3565b60005b82811015610414576104048888838181106103d1576103d1610ff1565b90506020020160208101906103e69190611027565b8787848181106103f8576103f8610ff1565b90506020020135610c92565b61040d81611105565b90506103b4565b50478015610426576104263382610c92565b506001979650505050505050565b6060818067ffffffffffffffff81111561045057610450610fdb565b60405190808252806020026020018201604052801561049657816020015b60408051808201909152600081526060602082015281526020019060019003908161046e5790505b5091503660005b828110156102fc5760008482815181106104b9576104b9610ff1565b602002602001015190508686838181106104d5576104d5610ff1565b90506020028101906104e7919061111e565b92506104f66020840184611027565b6001600160a01b031661050c6040850185611049565b60405161051a929190611090565b6000604051808303816000865af19150503d8060008114610557576040519150601f19603f3d011682016040523d82523d6000602084013e61055c565b606091505b5060208084019190915290151580835290840135176105ad5762461bcd60e51b6000526020600452601760245276135d5b1d1a58d85b1b0cce8818d85b1b0819985a5b1959604a1b60445260646000fd5b5060010161049d565b6000838281146105d85760405162461bcd60e51b81526004016102f3906110a0565b6040516370a0823160e01b815233600482015260009081906001600160a01b038a16906370a0823190602401602060405180830381865afa158015610621573d6000803e3d6000fd5b505050506040513d601f19601f820116820180604052508101906106459190611134565b905060005b838110156106e6576106b0338a8a8481811061066857610668610ff1565b905060200201602081019061067d9190611027565b89898581811061068f5761068f610ff1565b905060200201358d6001600160a01b0316610ce8909392919063ffffffff16565b8686828181106106c2576106c2610ff1565b90506020020135836106d491906110ed565b92506106df81611105565b905061064a565b508181101561072f5760405162461bcd60e51b815260206004820152601560248201527424b739bab33334b1b4b2b73a103130b630b731b29760591b60448201526064016102f3565b50600198975050505050505050565b6060838281146107605760405162461bcd60e51b81526004016102f3906110a0565b60008167ffffffffffffffff81111561077b5761077b610fdb565b6040519080825280602002602001820160405280156107c857816020015b604080516060808201835260008083526020830152918101919091528152602001906001900390816107995790505b5090506000805b838110156108de57604080516060810182526001600160a01b038c16815260016020820152908101338b8b8581811061080a5761080a610ff1565b905060200201602081019061081f9190611027565b8a8a8681811061083157610831610ff1565b6040516001600160a01b0395861660248201529490931660448501525060209091020135606482015260840160408051601f198184030181529190526020810180516001600160e01b03166323b872dd60e01b1790529052835184908390811061089d5761089d610ff1565b60200260200101819052508686828181106108ba576108ba610ff1565b90506020020135826108cc91906110ed565b91506108d781611105565b90506107cf565b50604051636eb1769f60e11b81523360048201523060248201526000906001600160a01b038b169063dd62ed3e90604401602060405180830381865afa15801561092c573d6000803e3d6000fd5b505050506040513d601f19601f820116820180604052508101906109509190611134565b90508082111561099b5760405162461bcd60e51b8152602060048201526016602482015275496e73756666696369656e7420616c6c6f77616e636560501b60448201526064016102f3565b6040516382ad56cb60e01b815230906382ad56cb906109be90869060040161114d565b6000604051808303816000875af11580156109dd573d6000803e3d6000fd5b505050506040513d6000823e601f3d908101601f19168201604052610a059190810190611223565b9a9950505050505050505050565b606083828114610a355760405162461bcd60e51b81526004016102f3906110a0565b6000808267ffffffffffffffff811115610a5157610a51610fdb565b604051908082528060200260200182016040528015610aa257816020015b6040805160808101825260008082526020808301829052928201526060808201528252600019909201910181610a6f5790505b50905060005b83811015610bc15760405180608001604052808a8a84818110610acd57610acd610ff1565b9050602002016020810190610ae29190611027565b6001600160a01b0316815260016020820152604001888884818110610b0957610b09610ff1565b905060200201358152602001888884818110610b2757610b27610ff1565b90506020020135604051602401610b4091815260200190565b60408051601f198184030181529190526020810180516001600160e01b0316635296080f60e11b17905290528251839083908110610b8057610b80610ff1565b6020026020010181905250868682818110610b9d57610b9d610ff1565b9050602002013583610baf91906110ed565b9250610bba81611105565b9050610aa8565b5081341015610c075760405162461bcd60e51b8152602060048201526012602482015271496e73756666696369656e742076616c756560701b60448201526064016102f3565b60405163174dea7160e01b8152309063174dea71908490610c2c908590600401611389565b60006040518083038185885af1158015610c4a573d6000803e3d6000fd5b50505050506040513d6000823e601f3d908101601f19168201604052610c739190810190611223565b9350478015610c8657610c863382610c92565b50505050949350505050565b600080600080600085875af1905080610ce35760405162461bcd60e51b815260206004820152601360248201527211551217d514905394d1915497d19052531151606a1b60448201526064016102f3565b505050565b60006040516323b872dd60e01b81528460048201528360248201528260448201526020600060648360008a5af13d15601f3d1160016000511416171691505080610d6b5760405162461bcd60e51b81526020600482015260146024820152731514905394d1915497d19493d357d1905253115160621b60448201526064016102f3565b5050505050565b60008083601f840112610d8457600080fd5b50813567ffffffffffffffff811115610d9c57600080fd5b6020830191508360208260051b8501011115610db757600080fd5b9250929050565b60008060208385031215610dd157600080fd5b823567ffffffffffffffff811115610de857600080fd5b610df485828601610d72565b90969095509350505050565b60005b83811015610e1b578181015183820152602001610e03565b83811115610e2a576000848401525b50505050565b60008151808452610e48816020860160208601610e00565b601f01601f19169290920160200192915050565b60006020808301818452808551808352604092508286019150828160051b87010184880160005b83811015610ec457888303603f190185528151805115158452870151878401879052610eb187850182610e30565b9588019593505090860190600101610e83565b509098975050505050505050565b60008060008060408587031215610ee857600080fd5b843567ffffffffffffffff80821115610f0057600080fd5b610f0c88838901610d72565b90965094506020870135915080821115610f2557600080fd5b50610f3287828801610d72565b95989497509550505050565b80356001600160a01b0381168114610f5557600080fd5b919050565b600080600080600060608688031215610f7257600080fd5b610f7b86610f3e565b9450602086013567ffffffffffffffff80821115610f9857600080fd5b610fa489838a01610d72565b90965094506040880135915080821115610fbd57600080fd5b50610fca88828901610d72565b969995985093965092949392505050565b634e487b7160e01b600052604160045260246000fd5b634e487b7160e01b600052603260045260246000fd5b60008235607e1983360301811261101d57600080fd5b9190910192915050565b60006020828403121561103957600080fd5b61104282610f3e565b9392505050565b6000808335601e1984360301811261106057600080fd5b83018035915067ffffffffffffffff82111561107b57600080fd5b602001915036819003821315610db757600080fd5b8183823760009101908152919050565b60208082526017908201527f54617267657420616d6f756e7473206d69736d61746368000000000000000000604082015260600190565b634e487b7160e01b600052601160045260246000fd5b60008219821115611100576111006110d7565b500190565b600060018201611117576111176110d7565b5060010190565b60008235605e1983360301811261101d57600080fd5b60006020828403121561114657600080fd5b5051919050565b60006020808301818452808551808352604092508286019150828160051b87010184880160005b83811015610ec457888303603f19018552815180516001600160a01b031684528781015115158885015286015160608785018190526111b581860183610e30565b968901969450505090860190600101611174565b6040805190810167ffffffffffffffff811182821017156111ec576111ec610fdb565b60405290565b604051601f8201601f1916810167ffffffffffffffff8111828210171561121b5761121b610fdb565b604052919050565b6000602080838503121561123657600080fd5b825167ffffffffffffffff8082111561124e57600080fd5b818501915085601f83011261126257600080fd5b81518181111561127457611274610fdb565b8060051b6112838582016111f2565b918252838101850191858101908984111561129d57600080fd5b86860192505b8383101561137c578251858111156112bb5760008081fd5b86016040601f19828d0381018213156112d45760008081fd5b6112dc6111c9565b8a84015180151581146112ef5760008081fd5b815283830151898111156113035760008081fd5b8085019450508d603f8501126113195760008081fd5b8a8401518981111561132d5761132d610fdb565b61133d8c84601f840116016111f2565b92508083528e848287010111156113545760008081fd5b611363818d8501868801610e00565b50808b01919091528452505091860191908601906112a3565b9998505050505050505050565b60006020808301818452808551808352604092508286019150828160051b87010184880160005b83811015610ec457888303603f19018552815180516001600160a01b031684528781015115158885015286810151878501526060908101516080918501829052906113fd81860183610e30565b9689019694505050908601906001016113b056fea264697066735822122017738565d8c30c13bad4c6bc7be15cbde6068278fa4fb3225e2dfb8157660d6a64736f6c634300080d0033",
    "linkReferences": {}
  },
  "methodIdentifiers": {
    "aggregate3((address,bool,bytes)[])": "82ad56cb",
    "aggregate3Value((address,bool,uint256,bytes)[])": "174dea71",
    "disperse(address,address[],uint256[])": "c87b1ae3",
    "disperseEther(address[],uint256[])": "e63d38ed",
    "disperseEtherLoop(address[],uint256[])": "2f9498cf",
    "disperseLoop(address,address[],uint256[])": "8d44456e"
  },
  "id": 10
}