{
  "abi": [
    {
      "inputs": [],
      "name": "CALLER",
      "outputs": [
        {
          "internalType": "contract Multicall3",
          "name": "",
          "type": "address"
        }
      ],
      "stateMutability": "view",
      "type": "function"
    },
    {
      "inputs": [
        {
          "internalType": "address",
          "name": "token",
          "type": "address"
        },
        {
          "internalType": "address[]",
          "name": "targets",
          "type": "address[]"
        },
        {
          "internalType": "uint256[]",
          "name": "amounts",
          "type": "uint256[]"
        }
      ],
      "name": "disperse",
      "outputs": [
        {
          "components": [
            {
              "internalType": "bool",
              "name": "success",
              "type": "bool"
            },
            {
              "internalType": "bytes",
              "name": "returnData",
              "type": "bytes"
            }
          ],
          "internalType": "struct Multicall3.Result[]",
          "name": "",
          "type": "tuple[]"
        }
      ],
      "stateMutability": "nonpayable",
      "type": "function"
    },
    {
      "inputs": [
        {
          "internalType": "address[]",
          "name": "targets",
          "type": "address[]"
        },
        {
          "internalType": "uint256[]",
          "name": "amounts",
          "type": "uint256[]"
        }
      ],
      "name": "disperseEther",
      "outputs": [
        {
          "components": [
            {
              "internalType": "bool",
              "name": "success",
              "type": "bool"
            },
            {
              "internalType": "bytes",
              "name": "returnData",
              "type": "bytes"
            }
          ],
          "internalType": "struct Multicall3.Result[]",
          "name": "result",
          "type": "tuple[]"
        }
      ],
      "stateMutability": "payable",
      "type": "function"
    },
    {
      "inputs": [
        {
          "internalType": "address[]",
          "name": "targets",
          "type": "address[]"
        },
        {
          "internalType": "uint256[]",
          "name": "amounts",
          "type": "uint256[]"
        }
      ],
      "name": "disperseEtherLoop",
      "outputs": [
        {
          "internalType": "bool",
          "name": "",
          "type": "bool"
        }
      ],
      "stateMutability": "payable",
      "type": "function"
    },
    {
      "inputs": [
        {
          "internalType": "address",
          "name": "token",
          "type": "address"
        },
        {
          "internalType": "address[]",
          "name": "targets",
          "type": "address[]"
        },
        {
          "internalType": "uint256[]",
          "name": "amounts",
          "type": "uint256[]"
        }
      ],
      "name": "disperseLoop",
      "outputs": [
        {
          "internalType": "bool",
          "name": "",
          "type": "bool"
        }
      ],
      "stateMutability": "nonpayable",
      "type": "function"
    }
  ],
  "bytecode": {
    "object": "0x608060405234801561001057600080fd5b50610f71806100206000396000f3fe60806040526004361061004a5760003560e01c80632f9498cf1461004f578063863dabb4146100775780638d44456e146100b7578063c87b1ae3146100d7578063e63d38ed14610104575b600080fd5b61006261005d3660046109c4565b610117565b60405190151581526020015b60405180910390f35b34801561008357600080fd5b5061009f73ca11bde05977b3631167028862be2a173976ca1181565b6040516001600160a01b03909116815260200161006e565b3480156100c357600080fd5b506100626100d2366004610a4c565b61024f565b3480156100e357600080fd5b506100f76100f2366004610a4c565b6103d7565b60405161006e9190610b29565b6100f76101123660046109c4565b610603565b6000838281146101425760405162461bcd60e51b815260040161013990610b9f565b60405180910390fd5b6000805b828110156101845785858281811061016057610160610bd6565b90506020020135826101729190610c02565b915061017d81610c1a565b9050610146565b50803410156101cc5760405162461bcd60e51b8152602060048201526014602482015273496e7375666669636965746e2062616c616e636560601b6044820152606401610139565b60005b8281101561022f5761021f8888838181106101ec576101ec610bd6565b90506020020160208101906102019190610c33565b87878481811061021357610213610bd6565b90506020020135610898565b61022881610c1a565b90506101cf565b50478015610241576102413382610898565b506001979650505050505050565b6000838281146102715760405162461bcd60e51b815260040161013990610b9f565b6040516370a0823160e01b815233600482015260009081906001600160a01b038a16906370a0823190602401602060405180830381865afa1580156102ba573d6000803e3d6000fd5b505050506040513d601f19601f820116820180604052508101906102de9190610c55565b905060005b8381101561037f57610349338a8a8481811061030157610301610bd6565b90506020020160208101906103169190610c33565b89898581811061032857610328610bd6565b905060200201358d6001600160a01b03166108ee909392919063ffffffff16565b86868281811061035b5761035b610bd6565b905060200201358361036d9190610c02565b925061037881610c1a565b90506102e3565b50818110156103c85760405162461bcd60e51b815260206004820152601560248201527424b739bab33334b1b4b2b73a103130b630b731b29760591b6044820152606401610139565b50600198975050505050505050565b6060838281146103f95760405162461bcd60e51b815260040161013990610b9f565b60008167ffffffffffffffff81111561041457610414610c6e565b60405190808252806020026020018201604052801561046157816020015b604080516060808201835260008083526020830152918101919091528152602001906001900390816104325790505b5090506000805b8381101561057757604080516060810182526001600160a01b038c16815260016020820152908101338b8b858181106104a3576104a3610bd6565b90506020020160208101906104b89190610c33565b8a8a868181106104ca576104ca610bd6565b6040516001600160a01b0395861660248201529490931660448501525060209091020135606482015260840160408051601f198184030181529190526020810180516001600160e01b03166323b872dd60e01b1790529052835184908390811061053657610536610bd6565b602002602001018190525086868281811061055357610553610bd6565b90506020020135826105659190610c02565b915061057081610c1a565b9050610468565b506040516382ad56cb60e01b815273ca11bde05977b3631167028862be2a173976ca11906382ad56cb906105af908590600401610c84565b6000604051808303816000875af11580156105ce573d6000803e3d6000fd5b505050506040513d6000823e601f3d908101601f191682016040526105f69190810190610d5a565b9998505050505050505050565b6060838281146106255760405162461bcd60e51b815260040161013990610b9f565b6000808267ffffffffffffffff81111561064157610641610c6e565b60405190808252806020026020018201604052801561069257816020015b604080516080810182526000808252602080830182905292820152606080820152825260001990920191018161065f5790505b50905060005b838110156107b35760408051608081018252338152600060208201529081018888848181106106c9576106c9610bd6565b9050602002013581526020018a8a848181106106e7576106e7610bd6565b90506020020160208101906106fc9190610c33565b89898581811061070e5761070e610bd6565b6040516001600160a01b039094166024850152602002919091013560448301525060640160408051601f198184030181529190526020810180516001600160e01b031663a9059cbb60e01b1790529052825183908390811061077257610772610bd6565b602002602001018190525086868281811061078f5761078f610bd6565b90506020020135836107a19190610c02565b92506107ac81610c1a565b9050610698565b50813410156107f95760405162461bcd60e51b8152602060048201526012602482015271496e73756666696369656e742076616c756560701b6044820152606401610139565b60405163174dea7160e01b815273ca11bde05977b3631167028862be2a173976ca119063174dea71908490610832908590600401610eb3565b60006040518083038185885af1158015610850573d6000803e3d6000fd5b50505050506040513d6000823e601f3d908101601f191682016040526108799190810190610d5a565b935047801561088c5761088c3382610898565b50505050949350505050565b600080600080600085875af19050806108e95760405162461bcd60e51b815260206004820152601360248201527211551217d514905394d1915497d19052531151606a1b6044820152606401610139565b505050565b60006040516323b872dd60e01b81528460048201528360248201528260448201526020600060648360008a5af13d15601f3d11600160005114161716915050806109715760405162461bcd60e51b81526020600482015260146024820152731514905394d1915497d19493d357d1905253115160621b6044820152606401610139565b5050505050565b60008083601f84011261098a57600080fd5b50813567ffffffffffffffff8111156109a257600080fd5b6020830191508360208260051b85010111156109bd57600080fd5b9250929050565b600080600080604085870312156109da57600080fd5b843567ffffffffffffffff808211156109f257600080fd5b6109fe88838901610978565b90965094506020870135915080821115610a1757600080fd5b50610a2487828801610978565b95989497509550505050565b80356001600160a01b0381168114610a4757600080fd5b919050565b600080600080600060608688031215610a6457600080fd5b610a6d86610a30565b9450602086013567ffffffffffffffff80821115610a8a57600080fd5b610a9689838a01610978565b90965094506040880135915080821115610aaf57600080fd5b50610abc88828901610978565b969995985093965092949392505050565b60005b83811015610ae8578181015183820152602001610ad0565b83811115610af7576000848401525b50505050565b60008151808452610b15816020860160208601610acd565b601f01601f19169290920160200192915050565b60006020808301818452808551808352604092508286019150828160051b87010184880160005b83811015610b9157888303603f190185528151805115158452870151878401879052610b7e87850182610afd565b9588019593505090860190600101610b50565b509098975050505050505050565b60208082526017908201527f54617267657420616d6f756e7473206d69736d61746368000000000000000000604082015260600190565b634e487b7160e01b600052603260045260246000fd5b634e487b7160e01b600052601160045260246000fd5b60008219821115610c1557610c15610bec565b500190565b600060018201610c2c57610c2c610bec565b5060010190565b600060208284031215610c4557600080fd5b610c4e82610a30565b9392505050565b600060208284031215610c6757600080fd5b5051919050565b634e487b7160e01b600052604160045260246000fd5b60006020808301818452808551808352604092508286019150828160051b87010184880160005b83811015610b9157888303603f19018552815180516001600160a01b03168452878101511515888501528601516060878501819052610cec81860183610afd565b968901969450505090860190600101610cab565b6040805190810167ffffffffffffffff81118282101715610d2357610d23610c6e565b60405290565b604051601f8201601f1916810167ffffffffffffffff81118282101715610d5257610d52610c6e565b604052919050565b60006020808385031215610d6d57600080fd5b825167ffffffffffffffff80821115610d8557600080fd5b818501915085601f830112610d9957600080fd5b815181811115610dab57610dab610c6e565b8060051b610dba858201610d29565b9182528381018501918581019089841115610dd457600080fd5b86860192505b838310156105f657825185811115610df25760008081fd5b86016040601f19828d038101821315610e0b5760008081fd5b610e13610d00565b8a8401518015158114610e265760008081fd5b81528383015189811115610e3a5760008081fd5b8085019450508d603f850112610e505760008081fd5b8a84015189811115610e6457610e64610c6e565b610e748c84601f84011601610d29565b92508083528e84828701011115610e8b5760008081fd5b610e9a818d8501868801610acd565b50808b0191909152845250509186019190860190610dda565b60006020808301818452808551808352604092508286019150828160051b87010184880160005b83811015610b9157888303603f19018552815180516001600160a01b03168452878101511515888501528681015187850152606090810151608091850182905290610f2781860183610afd565b968901969450505090860190600101610eda56fea2646970667358221220ee8a69f110acf900ed8348848e565817dfca2b0e7a1fecd51899e52c6ebdc75064736f6c634300080d0033",
    "linkReferences": {}
  },
  "methodIdentifiers": {
    "CALLER()": "863dabb4",
    "disperse(address,address[],uint256[])": "c87b1ae3",
    "disperseEther(address[],uint256[])": "e63d38ed",
    "disperseEtherLoop(address[],uint256[])": "2f9498cf",
    "disperseLoop(address,address[],uint256[])": "8d44456e"
  },
  "id": 9
}